{
  "contractName": "Marketplace",
  "abi": [
    {
      "inputs": [
        {
          "internalType": "address",
          "name": "_tokenContract",
          "type": "address"
        }
      ],
      "stateMutability": "nonpayable",
      "type": "constructor"
    },
    {
      "anonymous": false,
      "inputs": [
        {
          "indexed": false,
          "internalType": "uint256",
          "name": "id",
          "type": "uint256"
        },
        {
          "indexed": false,
          "internalType": "address payable",
          "name": "seller",
          "type": "address"
        },
        {
          "indexed": false,
          "internalType": "uint256",
          "name": "price",
          "type": "uint256"
        }
      ],
      "name": "ItemCreated",
      "type": "event"
    },
    {
      "anonymous": false,
      "inputs": [
        {
          "indexed": false,
          "internalType": "uint256",
          "name": "id",
          "type": "uint256"
        },
        {
          "indexed": false,
          "internalType": "address payable",
          "name": "buyer",
          "type": "address"
        },
        {
          "indexed": false,
          "internalType": "uint256",
          "name": "price",
          "type": "uint256"
        }
      ],
      "name": "ItemSold",
      "type": "event"
    },
    {
      "inputs": [],
      "name": "constCalled",
      "outputs": [
        {
          "internalType": "uint256",
          "name": "",
          "type": "uint256"
        }
      ],
      "stateMutability": "view",
      "type": "function",
      "constant": true
    },
    {
      "inputs": [],
      "name": "itemCount",
      "outputs": [
        {
          "internalType": "uint256",
          "name": "",
          "type": "uint256"
        }
      ],
      "stateMutability": "view",
      "type": "function",
      "constant": true
    },
    {
      "inputs": [
        {
          "internalType": "uint256",
          "name": "",
          "type": "uint256"
        }
      ],
      "name": "items",
      "outputs": [
        {
          "internalType": "uint256",
          "name": "id",
          "type": "uint256"
        },
        {
          "internalType": "address payable",
          "name": "seller",
          "type": "address"
        },
        {
          "internalType": "uint256",
          "name": "price",
          "type": "uint256"
        },
        {
          "internalType": "bool",
          "name": "sold",
          "type": "bool"
        },
        {
          "internalType": "bool",
          "name": "canceled",
          "type": "bool"
        },
        {
          "internalType": "string",
          "name": "title",
          "type": "string"
        },
        {
          "internalType": "string",
          "name": "description",
          "type": "string"
        }
      ],
      "stateMutability": "view",
      "type": "function",
      "constant": true
    },
    {
      "inputs": [],
      "name": "tokenContract",
      "outputs": [
        {
          "internalType": "contract ERC20",
          "name": "",
          "type": "address"
        }
      ],
      "stateMutability": "view",
      "type": "function",
      "constant": true
    },
    {
      "inputs": [],
      "name": "getget",
      "outputs": [
        {
          "internalType": "uint256",
          "name": "",
          "type": "uint256"
        }
      ],
      "stateMutability": "view",
      "type": "function",
      "constant": true
    },
    {
      "inputs": [
        {
          "internalType": "string",
          "name": "_title",
          "type": "string"
        },
        {
          "internalType": "string",
          "name": "_description",
          "type": "string"
        },
        {
          "internalType": "uint256",
          "name": "_price",
          "type": "uint256"
        }
      ],
      "name": "createItem",
      "outputs": [],
      "stateMutability": "nonpayable",
      "type": "function"
    },
    {
      "inputs": [
        {
          "internalType": "uint256",
          "name": "_id",
          "type": "uint256"
        }
      ],
      "name": "buyItem",
      "outputs": [],
      "stateMutability": "nonpayable",
      "type": "function"
    },
    {
      "inputs": [
        {
          "internalType": "uint256",
          "name": "_id",
          "type": "uint256"
        }
      ],
      "name": "getItem",
      "outputs": [
        {
          "internalType": "uint256",
          "name": "",
          "type": "uint256"
        },
        {
          "internalType": "address",
          "name": "",
          "type": "address"
        },
        {
          "internalType": "uint256",
          "name": "",
          "type": "uint256"
        },
        {
          "internalType": "bool",
          "name": "",
          "type": "bool"
        },
        {
          "internalType": "bool",
          "name": "",
          "type": "bool"
        },
        {
          "internalType": "string",
          "name": "",
          "type": "string"
        },
        {
          "internalType": "string",
          "name": "",
          "type": "string"
        }
      ],
      "stateMutability": "view",
      "type": "function",
      "constant": true
    },
    {
      "inputs": [],
      "name": "getAllItems",
      "outputs": [
        {
          "components": [
            {
              "internalType": "uint256",
              "name": "id",
              "type": "uint256"
            },
            {
              "internalType": "address payable",
              "name": "seller",
              "type": "address"
            },
            {
              "internalType": "uint256",
              "name": "price",
              "type": "uint256"
            },
            {
              "internalType": "bool",
              "name": "sold",
              "type": "bool"
            },
            {
              "internalType": "bool",
              "name": "canceled",
              "type": "bool"
            },
            {
              "internalType": "string",
              "name": "title",
              "type": "string"
            },
            {
              "internalType": "string",
              "name": "description",
              "type": "string"
            }
          ],
          "internalType": "struct Marketplace.Item[]",
          "name": "",
          "type": "tuple[]"
        }
      ],
      "stateMutability": "view",
      "type": "function",
      "constant": true
    },
    {
      "inputs": [
        {
          "internalType": "uint256",
          "name": "_id",
          "type": "uint256"
        }
      ],
      "name": "cancelSale",
      "outputs": [],
      "stateMutability": "nonpayable",
      "type": "function"
    }
  ],
  "bytecode": "0x60806040523480156200001157600080fd5b506040516200240138038062002401833981810160405281019062000037919062000103565b600260008154809291906200004c906200016e565b919050555080600360006101000a81548173ffffffffffffffffffffffffffffffffffffffff021916908373ffffffffffffffffffffffffffffffffffffffff16021790555050620001bb565b600080fd5b600073ffffffffffffffffffffffffffffffffffffffff82169050919050565b6000620000cb826200009e565b9050919050565b620000dd81620000be565b8114620000e957600080fd5b50565b600081519050620000fd81620000d2565b92915050565b6000602082840312156200011c576200011b62000099565b5b60006200012c84828501620000ec565b91505092915050565b7f4e487b7100000000000000000000000000000000000000000000000000000000600052601160045260246000fd5b6000819050919050565b60006200017b8262000164565b91507fffffffffffffffffffffffffffffffffffffffffffffffffffffffffffffffff8203620001b057620001af62000135565b5b600182019050919050565b61223680620001cb6000396000f3fe608060405234801561001057600080fd5b506004361061009e5760003560e01c80636bfb0d01116100665780636bfb0d011461014f5780637489e1951461016d578063bd94b0051461018b578063bfb231d2146101a7578063e7fb74c7146101dd5761009e565b80630d3fc6ef146100a35780633129e773146100c15780634ba1d6aa146100f757806355a373d6146101155780635fb6161c14610133575b600080fd5b6100ab6101f9565b6040516100b89190611424565b60405180910390f35b6100db60048036038101906100d6919061147f565b6101ff565b6040516100ee9796959493929190611598565b60405180910390f35b6100ff61042c565b60405161010c9190611803565b60405180910390f35b61011d6106be565b60405161012a9190611884565b60405180910390f35b61014d600480360381019061014891906119d4565b6106e4565b005b6101576108b0565b6040516101649190611424565b60405180910390f35b6101756108b6565b6040516101829190611424565b60405180910390f35b6101a560048036038101906101a0919061147f565b610959565b005b6101c160048036038101906101bc919061147f565b610d3a565b6040516101d49796959493929190611a6e565b60405180910390f35b6101f760048036038101906101f2919061147f565b610ec6565b005b60025481565b600080600080600060608060008060008a81526020019081526020016000206040518060e0016040529081600082015481526020016001820160009054906101000a900473ffffffffffffffffffffffffffffffffffffffff1673ffffffffffffffffffffffffffffffffffffffff1673ffffffffffffffffffffffffffffffffffffffff168152602001600282015481526020016003820160009054906101000a900460ff161515151581526020016003820160019054906101000a900460ff161515151581526020016004820180546102d990611b1a565b80601f016020809104026020016040519081016040528092919081815260200182805461030590611b1a565b80156103525780601f1061032757610100808354040283529160200191610352565b820191906000526020600020905b81548152906001019060200180831161033557829003601f168201915b5050505050815260200160058201805461036b90611b1a565b80601f016020809104026020016040519081016040528092919081815260200182805461039790611b1a565b80156103e45780601f106103b9576101008083540402835291602001916103e4565b820191906000526020600020905b8154815290600101906020018083116103c757829003601f168201915b5050505050815250509050806000015181602001518260400151836060015184608001518560a001518660c00151975097509750975097509750975050919395979092949650565b6060600060015467ffffffffffffffff81111561044c5761044b6118a9565b5b60405190808252806020026020018201604052801561048557816020015b6104726113b4565b81526020019060019003908161046a5790505b5090506000600190505b60015481116106b6576000808281526020019081526020016000206040518060e0016040529081600082015481526020016001820160009054906101000a900473ffffffffffffffffffffffffffffffffffffffff1673ffffffffffffffffffffffffffffffffffffffff1673ffffffffffffffffffffffffffffffffffffffff168152602001600282015481526020016003820160009054906101000a900460ff161515151581526020016003820160019054906101000a900460ff1615151515815260200160048201805461056590611b1a565b80601f016020809104026020016040519081016040528092919081815260200182805461059190611b1a565b80156105de5780601f106105b3576101008083540402835291602001916105de565b820191906000526020600020905b8154815290600101906020018083116105c157829003601f168201915b505050505081526020016005820180546105f790611b1a565b80601f016020809104026020016040519081016040528092919081815260200182805461062390611b1a565b80156106705780601f1061064557610100808354040283529160200191610670565b820191906000526020600020905b81548152906001019060200180831161065357829003601f168201915b505050505081525050826001836106879190611b7a565b8151811061069857610697611bae565b5b602002602001018190525080806106ae90611bdd565b91505061048f565b508091505090565b600360009054906101000a900473ffffffffffffffffffffffffffffffffffffffff1681565b60008111610727576040517f08c379a000000000000000000000000000000000000000000000000000000000815260040161071e90611c71565b60405180910390fd5b6001600081548092919061073a90611bdd565b91905055506040518060e0016040528060015481526020013373ffffffffffffffffffffffffffffffffffffffff1681526020018281526020016000151581526020016000151581526020018481526020018381525060008060015481526020019081526020016000206000820151816000015560208201518160010160006101000a81548173ffffffffffffffffffffffffffffffffffffffff021916908373ffffffffffffffffffffffffffffffffffffffff1602179055506040820151816002015560608201518160030160006101000a81548160ff02191690831515021790555060808201518160030160016101000a81548160ff02191690831515021790555060a08201518160040190816108549190611e33565b5060c082015181600501908161086a9190611e33565b509050507f9b8c4b5bf2f39369bee0a581bf2e28b1c1df1982925a012ff839ee598d142cdd60015433836040516108a393929190611f05565b60405180910390a1505050565b60015481565b6000600360009054906101000a900473ffffffffffffffffffffffffffffffffffffffff1673ffffffffffffffffffffffffffffffffffffffff166370a08231336040518263ffffffff1660e01b81526004016109139190611f3c565b602060405180830381865afa158015610930573d6000803e3d6000fd5b505050506040513d601f19601f820116820180604052508101906109549190611f6c565b905090565b60008060008381526020019081526020016000206040518060e0016040529081600082015481526020016001820160009054906101000a900473ffffffffffffffffffffffffffffffffffffffff1673ffffffffffffffffffffffffffffffffffffffff1673ffffffffffffffffffffffffffffffffffffffff168152602001600282015481526020016003820160009054906101000a900460ff161515151581526020016003820160019054906101000a900460ff16151515158152602001600482018054610a2890611b1a565b80601f0160208091040260200160405190810160405280929190818152602001828054610a5490611b1a565b8015610aa15780601f10610a7657610100808354040283529160200191610aa1565b820191906000526020600020905b815481529060010190602001808311610a8457829003601f168201915b50505050508152602001600582018054610aba90611b1a565b80601f0160208091040260200160405190810160405280929190818152602001828054610ae690611b1a565b8015610b335780601f10610b0857610100808354040283529160200191610b33565b820191906000526020600020905b815481529060010190602001808311610b1657829003601f168201915b5050505050815250509050806020015173ffffffffffffffffffffffffffffffffffffffff163373ffffffffffffffffffffffffffffffffffffffff1614610bb0576040517f08c379a0000000000000000000000000000000000000000000000000000000008152600401610ba790611fe5565b60405180910390fd5b600015158160600151151514610bfb576040517f08c379a0000000000000000000000000000000000000000000000000000000008152600401610bf290612051565b60405180910390fd5b60018160600190151590811515815250506001816080019015159081151581525050806000808481526020019081526020016000206000820151816000015560208201518160010160006101000a81548173ffffffffffffffffffffffffffffffffffffffff021916908373ffffffffffffffffffffffffffffffffffffffff1602179055506040820151816002015560608201518160030160006101000a81548160ff02191690831515021790555060808201518160030160016101000a81548160ff02191690831515021790555060a0820151816004019081610ce09190611e33565b5060c0820151816005019081610cf69190611e33565b509050507fa574c741071bb18f51fa88c17aeefec514bebf670ca22a3736fba6504ecbb76382600080604051610d2e939291906120ac565b60405180910390a15050565b60006020528060005260406000206000915090508060000154908060010160009054906101000a900473ffffffffffffffffffffffffffffffffffffffff16908060020154908060030160009054906101000a900460ff16908060030160019054906101000a900460ff1690806004018054610db590611b1a565b80601f0160208091040260200160405190810160405280929190818152602001828054610de190611b1a565b8015610e2e5780601f10610e0357610100808354040283529160200191610e2e565b820191906000526020600020905b815481529060010190602001808311610e1157829003601f168201915b505050505090806005018054610e4390611b1a565b80601f0160208091040260200160405190810160405280929190818152602001828054610e6f90611b1a565b8015610ebc5780601f10610e9157610100808354040283529160200191610ebc565b820191906000526020600020905b815481529060010190602001808311610e9f57829003601f168201915b5050505050905087565b60008060008381526020019081526020016000206040518060e0016040529081600082015481526020016001820160009054906101000a900473ffffffffffffffffffffffffffffffffffffffff1673ffffffffffffffffffffffffffffffffffffffff1673ffffffffffffffffffffffffffffffffffffffff168152602001600282015481526020016003820160009054906101000a900460ff161515151581526020016003820160019054906101000a900460ff16151515158152602001600482018054610f9590611b1a565b80601f0160208091040260200160405190810160405280929190818152602001828054610fc190611b1a565b801561100e5780601f10610fe35761010080835404028352916020019161100e565b820191906000526020600020905b815481529060010190602001808311610ff157829003601f168201915b5050505050815260200160058201805461102790611b1a565b80601f016020809104026020016040519081016040528092919081815260200182805461105390611b1a565b80156110a05780601f10611075576101008083540402835291602001916110a0565b820191906000526020600020905b81548152906001019060200180831161108357829003601f168201915b50505050508152505090506000151581606001511515146110f6576040517f08c379a00000000000000000000000000000000000000000000000000000000081526004016110ed90612051565b60405180910390fd5b8060400151600360009054906101000a900473ffffffffffffffffffffffffffffffffffffffff1673ffffffffffffffffffffffffffffffffffffffff166370a08231336040518263ffffffff1660e01b81526004016111569190611f3c565b602060405180830381865afa158015611173573d6000803e3d6000fd5b505050506040513d601f19601f820116820180604052508101906111979190611f6c565b10156111d8576040517f08c379a00000000000000000000000000000000000000000000000000000000081526004016111cf9061212f565b60405180910390fd5b600360009054906101000a900473ffffffffffffffffffffffffffffffffffffffff1673ffffffffffffffffffffffffffffffffffffffff166323b872dd33836020015184604001516040518463ffffffff1660e01b815260040161123f93929190612170565b6020604051808303816000875af115801561125e573d6000803e3d6000fd5b505050506040513d601f19601f8201168201806040525081019061128291906121d3565b506001816060019015159081151581525050806000808481526020019081526020016000206000820151816000015560208201518160010160006101000a81548173ffffffffffffffffffffffffffffffffffffffff021916908373ffffffffffffffffffffffffffffffffffffffff1602179055506040820151816002015560608201518160030160006101000a81548160ff02191690831515021790555060808201518160030160016101000a81548160ff02191690831515021790555060a08201518160040190816113579190611e33565b5060c082015181600501908161136d9190611e33565b509050507fa574c741071bb18f51fa88c17aeefec514bebf670ca22a3736fba6504ecbb763823383604001516040516113a893929190611f05565b60405180910390a15050565b6040518060e0016040528060008152602001600073ffffffffffffffffffffffffffffffffffffffff1681526020016000815260200160001515815260200160001515815260200160608152602001606081525090565b6000819050919050565b61141e8161140b565b82525050565b60006020820190506114396000830184611415565b92915050565b6000604051905090565b600080fd5b600080fd5b61145c8161140b565b811461146757600080fd5b50565b60008135905061147981611453565b92915050565b60006020828403121561149557611494611449565b5b60006114a38482850161146a565b91505092915050565b600073ffffffffffffffffffffffffffffffffffffffff82169050919050565b60006114d7826114ac565b9050919050565b6114e7816114cc565b82525050565b60008115159050919050565b611502816114ed565b82525050565b600081519050919050565b600082825260208201905092915050565b60005b83811015611542578082015181840152602081019050611527565b60008484015250505050565b6000601f19601f8301169050919050565b600061156a82611508565b6115748185611513565b9350611584818560208601611524565b61158d8161154e565b840191505092915050565b600060e0820190506115ad600083018a611415565b6115ba60208301896114de565b6115c76040830188611415565b6115d460608301876114f9565b6115e160808301866114f9565b81810360a08301526115f3818561155f565b905081810360c0830152611607818461155f565b905098975050505050505050565b600081519050919050565b600082825260208201905092915050565b6000819050602082019050919050565b61164a8161140b565b82525050565b600061165b826114ac565b9050919050565b61166b81611650565b82525050565b61167a816114ed565b82525050565b600082825260208201905092915050565b600061169c82611508565b6116a68185611680565b93506116b6818560208601611524565b6116bf8161154e565b840191505092915050565b600060e0830160008301516116e26000860182611641565b5060208301516116f56020860182611662565b5060408301516117086040860182611641565b50606083015161171b6060860182611671565b50608083015161172e6080860182611671565b5060a083015184820360a08601526117468282611691565b91505060c083015184820360c08601526117608282611691565b9150508091505092915050565b600061177983836116ca565b905092915050565b6000602082019050919050565b600061179982611615565b6117a38185611620565b9350836020820285016117b585611631565b8060005b858110156117f157848403895281516117d2858261176d565b94506117dd83611781565b925060208a019950506001810190506117b9565b50829750879550505050505092915050565b6000602082019050818103600083015261181d818461178e565b905092915050565b6000819050919050565b600061184a611845611840846114ac565b611825565b6114ac565b9050919050565b600061185c8261182f565b9050919050565b600061186e82611851565b9050919050565b61187e81611863565b82525050565b60006020820190506118996000830184611875565b92915050565b600080fd5b600080fd5b7f4e487b7100000000000000000000000000000000000000000000000000000000600052604160045260246000fd5b6118e18261154e565b810181811067ffffffffffffffff82111715611900576118ff6118a9565b5b80604052505050565b600061191361143f565b905061191f82826118d8565b919050565b600067ffffffffffffffff82111561193f5761193e6118a9565b5b6119488261154e565b9050602081019050919050565b82818337600083830152505050565b600061197761197284611924565b611909565b905082815260208101848484011115611993576119926118a4565b5b61199e848285611955565b509392505050565b600082601f8301126119bb576119ba61189f565b5b81356119cb848260208601611964565b91505092915050565b6000806000606084860312156119ed576119ec611449565b5b600084013567ffffffffffffffff811115611a0b57611a0a61144e565b5b611a17868287016119a6565b935050602084013567ffffffffffffffff811115611a3857611a3761144e565b5b611a44868287016119a6565b9250506040611a558682870161146a565b9150509250925092565b611a6881611650565b82525050565b600060e082019050611a83600083018a611415565b611a906020830189611a5f565b611a9d6040830188611415565b611aaa60608301876114f9565b611ab760808301866114f9565b81810360a0830152611ac9818561155f565b905081810360c0830152611add818461155f565b905098975050505050505050565b7f4e487b7100000000000000000000000000000000000000000000000000000000600052602260045260246000fd5b60006002820490506001821680611b3257607f821691505b602082108103611b4557611b44611aeb565b5b50919050565b7f4e487b7100000000000000000000000000000000000000000000000000000000600052601160045260246000fd5b6000611b858261140b565b9150611b908361140b565b9250828203905081811115611ba857611ba7611b4b565b5b92915050565b7f4e487b7100000000000000000000000000000000000000000000000000000000600052603260045260246000fd5b6000611be88261140b565b91507fffffffffffffffffffffffffffffffffffffffffffffffffffffffffffffffff8203611c1a57611c19611b4b565b5b600182019050919050565b7f5072696365206d7573742062652067726561746572207468616e20302e000000600082015250565b6000611c5b601d83611513565b9150611c6682611c25565b602082019050919050565b60006020820190508181036000830152611c8a81611c4e565b9050919050565b60008190508160005260206000209050919050565b60006020601f8301049050919050565b600082821b905092915050565b600060088302611cf37fffffffffffffffffffffffffffffffffffffffffffffffffffffffffffffffff82611cb6565b611cfd8683611cb6565b95508019841693508086168417925050509392505050565b6000611d30611d2b611d268461140b565b611825565b61140b565b9050919050565b6000819050919050565b611d4a83611d15565b611d5e611d5682611d37565b848454611cc3565b825550505050565b600090565b611d73611d66565b611d7e818484611d41565b505050565b5b81811015611da257611d97600082611d6b565b600181019050611d84565b5050565b601f821115611de757611db881611c91565b611dc184611ca6565b81016020851015611dd0578190505b611de4611ddc85611ca6565b830182611d83565b50505b505050565b600082821c905092915050565b6000611e0a60001984600802611dec565b1980831691505092915050565b6000611e238383611df9565b9150826002028217905092915050565b611e3c82611508565b67ffffffffffffffff811115611e5557611e546118a9565b5b611e5f8254611b1a565b611e6a828285611da6565b600060209050601f831160018114611e9d5760008415611e8b578287015190505b611e958582611e17565b865550611efd565b601f198416611eab86611c91565b60005b82811015611ed357848901518255600182019150602085019450602081019050611eae565b86831015611ef05784890151611eec601f891682611df9565b8355505b6001600288020188555050505b505050505050565b6000606082019050611f1a6000830186611415565b611f276020830185611a5f565b611f346040830184611415565b949350505050565b6000602082019050611f5160008301846114de565b92915050565b600081519050611f6681611453565b92915050565b600060208284031215611f8257611f81611449565b5b6000611f9084828501611f57565b91505092915050565b7f4f6e6c792073656c6c65722063616e2063616e63656c207468652073616c652e600082015250565b6000611fcf602083611513565b9150611fda82611f99565b602082019050919050565b60006020820190508181036000830152611ffe81611fc2565b9050919050565b7f4974656d20697320616c726561647920736f6c642e0000000000000000000000600082015250565b600061203b601583611513565b915061204682612005565b602082019050919050565b6000602082019050818103600083015261206a8161202e565b9050919050565b6000819050919050565b600061209661209161208c84612071565b611825565b61140b565b9050919050565b6120a68161207b565b82525050565b60006060820190506120c16000830186611415565b6120ce6020830185611a5f565b6120db604083018461209d565b949350505050565b7f496e73756666696369656e742062616c616e63652e0000000000000000000000600082015250565b6000612119601583611513565b9150612124826120e3565b602082019050919050565b600060208201905081810360008301526121488161210c565b9050919050565b600061215a82611851565b9050919050565b61216a8161214f565b82525050565b600060608201905061218560008301866114de565b6121926020830185612161565b61219f6040830184611415565b949350505050565b6121b0816114ed565b81146121bb57600080fd5b50565b6000815190506121cd816121a7565b92915050565b6000602082840312156121e9576121e8611449565b5b60006121f7848285016121be565b9150509291505056fea26469706673582212200a9977b4d6758d786ed6fbe6ae7e2da50c012caf34e74ab08c08d87329929cad64736f6c63430008110033",
  "immutableReferences": {},
  "source": "pragma solidity ^0.8.0;\r\n\r\nimport \"@openzeppelin/contracts/token/ERC20/ERC20.sol\";\r\nimport \"@openzeppelin/contracts/access/Ownable.sol\";\r\n\r\ncontract Marketplace {\r\n    struct Item {\r\n        uint256 id;\r\n        address payable seller;\r\n        uint256 price;\r\n        bool sold;\r\n        bool canceled;\r\n        string title;\r\n        string description;\r\n    }\r\n\r\n    mapping(uint256 => Item) public items;\r\n    uint256 public itemCount;\r\n    uint256 public constCalled;\r\n    ERC20 public tokenContract;\r\n\r\n    event ItemCreated(uint256 id, address payable seller, uint256 price);\r\n\r\n    event ItemSold(uint256 id, address payable buyer, uint256 price);\r\n\r\n    constructor(address _tokenContract) {\r\n        constCalled++;\r\n        tokenContract = ERC20(_tokenContract);\r\n    }\r\n\r\n    function getget() public view returns (uint256) {\r\n        return tokenContract.balanceOf(msg.sender);\r\n    }\r\n\r\n    function createItem(string memory _title, string memory _description, uint256 _price) public {\r\n        require(_price > 0, \"Price must be greater than 0.\");\r\n        itemCount++;\r\n        items[itemCount] = Item(itemCount, payable(msg.sender), _price, false, false, _title, _description);\r\n        emit ItemCreated(itemCount, payable(msg.sender), _price);\r\n    }\r\n\r\n    function buyItem(uint256 _id) public {\r\n        Item memory item = items[_id];\r\n        require(item.sold == false, \"Item is already sold.\");\r\n        require(\r\n            tokenContract.balanceOf(msg.sender) >= item.price,\r\n            \"Insufficient balance.\"\r\n        );\r\n        tokenContract.transferFrom(msg.sender, item.seller, item.price);\r\n        item.sold = true;\r\n        items[_id] = item;\r\n        emit ItemSold(_id, payable(msg.sender), item.price);\r\n    }\r\n\r\n    function getItem(uint256 _id) public view returns (uint256, address, uint256, bool, bool, string memory, string memory) {\r\n        Item memory item = items[_id];\r\n        return (item.id, item.seller, item.price, item.sold, item.canceled, item.title, item.description);\r\n    }\r\n\r\n    function getAllItems() public view returns (Item[] memory) {\r\n        Item[] memory allItems = new Item[](itemCount);\r\n        for (uint256 i = 1; i <= itemCount; i++) {\r\n            allItems[i - 1] = items[i];\r\n        }\r\n        return allItems;\r\n    }\r\n\r\n    function cancelSale(uint256 _id) public {\r\n        Item memory item = items[_id];\r\n        require(msg.sender == item.seller, \"Only seller can cancel the sale.\");\r\n        require(item.sold == false, \"Item is already sold.\");\r\n        item.sold = true;\r\n        item.canceled = true;\r\n        items[_id] = item;\r\n        emit ItemSold(_id, payable(address(0)), 0);\r\n    }\r\n}\r\n\r\ncontract MarketplaceToken is ERC20, Ownable {\r\n    constructor() ERC20(\"Marketplace Token\", \"MPT\") {}\r\n\r\n    function mint(address _to, uint256 _amount) public onlyOwner {\r\n        _mint(_to, _amount);\r\n    }\r\n\r\n    function burn(address _from, uint256 _amount) public onlyOwner {\r\n        _burn(_from, _amount);\r\n    }\r\n}\r\n",
  "sourcePath": "/Users/sahilsingh/Desktop/projects/marketplace-smartcontract/contracts/dapp.sol",
  "compiler": {
    "name": "solc",
    "version": "0.8.17+commit.8df45f5f.Emscripten.clang"
  },
  "schemaVersion": "3.4.11",
  "updatedAt": "2023-04-20T18:53:51.395Z",
  "networkType": "ethereum",
  "devdoc": {
    "kind": "dev",
    "methods": {},
    "version": 1
  },
  "userdoc": {
    "kind": "user",
    "methods": {},
    "version": 1
  }
}